:100000000C945E000C9486000C9486000C94860080
:100010000C9486000C9486000C9486000C94860048
:100020000C9486000C9486000C9486000C94860038
:100030000C9486000C9486000C9486000C94860028
:100040000C9442030C9486000C9417060C944906F9
:100050000C9486000C9486000C9486000C94860008
:100060000C9486000C948600000000080002010039
:100070000003040700000000000000000102040863
:100080001020408001020408102001020408102002
:10009000040404040404040402020202020203032E
:1000A0000303030300000000250028002B000000CC
:1000B0000000240027002A007E01790611241FBEBB
:1000C000CFEFD8E0DEBFCDBF11E0A0E0B1E0E2E2CB
:1000D000F0E102C005900D92AA3AB107D9F722E0EB
:1000E000AAEAB1E001C01D92AA36B207E1F710E01A
:1000F000CCEBD0E004C02297FE010E940B08C83B65
:10010000D107C9F70E94BD060C940F080C9400009B
:1001100026E040E855E260E070E08DEC91E00E945E
:10012000B50520E042E060E18AEA91E00E945B02CE
:1001300061E071E08AEA91E00E940A0741E060E034
:100140008AEA91E00E9441026EE071E08AEA91E061
:100150000E940A0760E570E080E090E00E94AF0333
:100160008AEA91E00E943A0261E089E00E94630419
:1001700041E060E08AEA91E00E9441026EE171E0B4
:100180008AEA91E00C940A0782E10E941D04909390
:10019000C3018093C20140E060E08AEA91E00E94DE
:1001A00041026FE271E08AEA91E00E940A0740E0B2
:1001B0006CE08AEA91E00E9441028091C201909134
:1001C000C3016AE070E00E94BF074AE050E08AEA9B
:1001D00091E00E94B60740E06EE08AEA91E00E945A
:1001E00041026CE371E08AEA91E00E940A0763E24F
:1001F00070E080E090E00E94AF038091C201909196
:10020000C3018436910524F540E060E08AEA91E07C
:100210000E94410262E471E08AEA91E00E940A07CA
:1002200040E06FE08AEA91E00E94410263E571E0FC
:100230008AEA91E00E940A0741E060E08AEA91E0E0
:100240000E9441026EE171E08AEA91E00E940A0791
:100250008091C2019091C3018F36910564F042E014
:1002600060E08AEA91E00E94410265E571E08AEA75
:1002700091E00E940A078091C2019091C3018739E1
:1002800091058CF061E089E00E949C0442E060E00E
:100290008AEA91E00E94410268E671E08AEA91E010
:1002A0000E940A0704C060E089E00E949C048091DB
:1002B000C2019091C301873E910564F042E060E085
:1002C0008AEA91E00E9441026EE771E08AEA91E0D9
:1002D0000E940A078091C2019091C301853091402C
:1002E00064F042E060E08AEA91E00E9441026EE739
:1002F00071E08AEA91E00C940A070895CF92EF9298
:100300000F9388E0C82E97E0E92E06E025E044E050
:1003100063E08AEA91E00E9416030F91EF90CF907C
:100320000895CF93DF93EC0160E08E810E949C04DE
:1003300081E090E00E94D70361E08E810E949C04DE
:1003400081E090E00E94D70360E08E810E949C04CF
:1003500084E690E0DF91CF910C94D703CF92DF92A7
:10036000EF92FF920F931F93CF93DF937C01C0E036
:10037000D0E0C62ED12C87010C0F1D1F61E0F801C3
:1003800087810E946304B6010C2E02C075956795A3
:100390000A94E2F76170F80187810E949C0421961B
:1003A000C430D10541F7C701DF91CF911F910F9163
:1003B000FF90EF90DF90CF900C949101CF92DF925D
:1003C000EF92FF920F931F93CF93DF937C01C0E0D6
:1003D000D0E0C62ED12C87010C0F1D1F61E0F80163
:1003E00087810E946304B6010C2E02C07595679543
:1003F0000A94E2F76170F80187810E949C042196BB
:10040000C830D10541F7C701DF91CF911F910F91FE
:10041000FF90EF90DF90CF900C9491011F93CF93BA
:10042000DF93EC01162F642F8C810E949C048D8138
:100430008F3F19F060E00E949C048F85612F84FF3C
:1004400006C0CE01DF91CF911F910C94DE0170E0C8
:1004500084E0759567958A95E1F7CE010E94AE011B
:10046000612FCE01DF91CF911F910C94AE0140E03E
:100470000C940E0261E00E94370280ED97E00C942C
:10048000D703443008F043E0FC012389421710F001
:100490004FEF420FFC01E40FF11D2489260F206865
:1004A000622F0C943702FC016089262F2460208B78
:1004B0006C600C943702CF93DF93EC01423018F05C
:1004C0008F8588608F874B8B1C8A80E48D8B6E8B29
:1004D00070E0605C7F4F6F8B222329F0413019F46C
:1004E0008F8584608F8780E593EC0E94D70360E05E
:1004F0008C810E949C0460E08E810E949C048D810E
:100500008F3F19F060E00E949C046F8564FD1DC060
:1005100063E0CE010E94AE0184E991E10E94D7031D
:1005200063E0CE010E94AE0184E991E10E94D7030D
:1005300063E0CE010E94AE0186E990E00E94D703FD
:1005400062E0CE010E94AE0116C06062CE010E9440
:10055000370284E991E10E94D7036F856062CE0182
:100560000E94370286E990E00E94D7036F8560629F
:10057000CE010E9437026F856062CE010E94370271
:1005800084E0888BCE010E945302CE010E943A0281
:1005900082E0898B66E0CE01DF91CF910C94370227
:1005A0006F927F928F92AF92CF92EF920F931F93A1
:1005B000CF93DF93CDB7DEB73C01162F842F5D8537
:1005C0004E853F859889F301848325830683E782DE
:1005D000C086A1868286538744873587968761E0E7
:1005E0000E946304F30185818F3F19F061E00E944E
:1005F000630461E0F30186810E946304112319F012
:10060000F301178603C080E1F301878720E041E012
:1006100060E1C301DF91CF911F910F91EF90CF90D7
:10062000AF908F907F906F900C945B028F92AF92FF
:10063000CF92EF920F93DC0113961C921E921297A9
:10064000E6E9F1E0ED93FC931F921F921F921F9237
:100650008C2CAE2CC02EE22E042F2FEF462F61E003
:100660000E94D0020F900F900F900F900F91EF907B
:10067000CF90AF908F90089541E00E940E0281E0EC
:1006800090E008951F920F920FB60F9211242F93AE
:100690003F938F939F93AF93BF938091C5019091A8
:1006A000C601A091C701B091C8013091C40123E0F7
:1006B000230F2D3720F40196A11DB11D05C026E89A
:1006C000230F0296A11DB11D2093C4018093C50183
:1006D0009093C601A093C701B093C8018091C9014E
:1006E0009091CA01A091CB01B091CC010196A11DBE
:1006F000B11D8093C9019093CA01A093CB01B0931F
:10070000CC01BF91AF919F918F913F912F910F900D
:100710000FBE0F901F9018953FB7F8948091C901B4
:100720009091CA01A091CB01B091CC0126B5A89BB4
:1007300005C02F3F19F00196A11DB11D3FBF6627CF
:10074000782F892F9A2F620F711D811D911D42E014
:10075000660F771F881F991F4A95D1F70895CF928A
:10076000DF92EF92FF92CF93DF936B017C010E94A7
:100770008C03EB01C114D104E104F10489F00E945F
:10078000BE070E948C036C1B7D0B683E734090F388
:1007900081E0C81AD108E108F108C851DC4FEACF5E
:1007A000DF91CF91FF90EF90DF90CF90089582304E
:1007B000910538F0880F991F880F991F05970197A9
:1007C000F1F70895789484B5826084BD84B5816022
:1007D00084BD85B5826085BD85B5816085BDEEE649
:1007E000F0E0808181608083E1E8F0E01082808128
:1007F00082608083808181608083E0E8F0E0808196
:1008000081608083E1EBF0E0808184608083E0EBB5
:10081000F0E0808181608083EAE7F0E0808184609D
:1008200080838081826080838081816080838081F9
:10083000806880831092C10008958E3008F08E5039
:1008400087702091000190E4299F90011124822B50
:1008500080937C0080917A00806480937A008091FC
:100860007A0086FDFCCF809178002091790090E09D
:10087000922B0895833081F028F4813099F08230F2
:10088000A1F008958730A9F08830B9F08430D1F410
:10089000809180008F7D03C0809180008F7780934E
:1008A0008000089584B58F7702C084B58F7D84BDA4
:1008B00008958091B0008F7703C08091B0008F7D44
:1008C0008093B0000895CF93DF9390E0FC01E4584B
:1008D000FF4F2491FC01E057FF4F8491882349F199
:1008E00090E0880F991FFC01E255FF4FA591B4914C
:1008F0008C559F4FFC01C591D4919FB7611108C0E1
:10090000F8948C91209582238C93888182230AC04D
:10091000623051F4F8948C91322F309583238C936C
:100920008881822B888304C0F8948C91822B8C93CD
:100930009FBFDF91CF9108950F931F93CF93DF93C4
:100940001F92CDB7DEB7282F30E0F901E859FF4FED
:100950008491F901E458FF4F1491F901E057FF4FDA
:1009600004910023C9F0882321F069830E943A048E
:100970006981E02FF0E0EE0FFF1FEC55FF4FA591CE
:10098000B4919FB7F8948C91611103C010958123A5
:1009900001C0812B8C939FBF0F90DF91CF911F914E
:1009A0000F910895FC01818D228D90E0805C9F4F16
:1009B000821B91098F7399270895FC01918D828D77
:1009C000981731F0828DE80FF11D858D90E0089524
:1009D0008FEF9FEF0895FC01918D828D981761F044
:1009E000828DDF01A80FB11D5D968C91928D9F5F66
:1009F0009F73928F90E008958FEF9FEF08958FE699
:100A000096E0892B49F080E090E0892B29F00E9444
:100A10006F0681110C9400000895FC01848DDF01A4
:100A2000A80FB11DA35ABF4F2C91848D90E0019661
:100A30008F739927848FA689B7892C93A089B18950
:100A40008C9180648C93938D848D981306C002885A
:100A5000F389E02D80818F7D80830895CF93DF938C
:100A6000EC01888D8823C9F0EA89FB89808185FDA6
:100A700005C0A889B9898C9186FD0FC00FB607FC07
:100A8000F5CF808185FFF2CFA889B9898C9185FF48
:100A9000EDCFCE010E940D05E7CFDF91CF910895F4
:100AA000CF92DF92FF920F931F93CF93DF931F920A
:100AB000CDB7DEB76C0181E0D60158968C9358977C
:100AC0005B969C915B975C968C915C97981307C0A2
:100AD0005096ED91FC915197808185FD2EC0F601D5
:100AE000038D10E00F5F1F4F0F731127F02EF601DB
:100AF000848DF81211C00FB607FCF9CFD6015096BD
:100B0000ED91FC915197808185FFF1CFC6016983FA
:100B10000E940D056981EBCF838DE80FF11DE35A2B
:100B2000FF4F6083D6015B960C935B975296ED91D5
:100B3000FC915397808180620CC0D6015696ED914E
:100B4000FC91579760835096ED91FC91519780816D
:100B50008064808381E090E00F90DF91CF911F91BE
:100B60000F91FF90DF90CF900895BF92CF92DF92C8
:100B7000EF92FF92CF93DF93EC016A017B01B22EDB
:100B8000E889F98982E08083411581EE5807610583
:100B90007105A1F060E079E08DE390E0A701960196
:100BA0000E94D307215031094109510956954795B3
:100BB00037952795211580E1380798F0E889F9895C
:100BC000108260E874E88EE190E0A70196010E942F
:100BD000D307215031094109510956954795379559
:100BE0002795EC85FD853083EE85FF852083188E63
:100BF000EC89FD89B082EA89FB89808180618083EC
:100C0000EA89FB89808188608083EA89FB89808109
:100C100080688083EA89FB8980818F7D8083DF9172
:100C2000CF91FF90EF90DF90CF90BF9008951F92EB
:100C30000F920FB60F9211242F938F939F93EF93E0
:100C4000FF93E091DD01F091DE018081E091E3010D
:100C5000F091E40182FD12C090818091E6018F5FE6
:100C60008F732091E701821751F0E091E601F0E0E7
:100C7000E353FE4F958F8093E60101C08081FF9181
:100C8000EF919F918F912F910F900FBE0F901F901A
:100C900018951F920F920FB60F9211242F933F9326
:100CA0004F935F936F937F938F939F93AF93BF9374
:100CB000EF93FF938DEC91E00E940D05FF91EF9172
:100CC000BF91AF919F918F917F916F915F914F9164
:100CD0003F912F910F900FBE0F901F9018958DECA4
:100CE00091E00E94D20421E0892B09F420E0822FB8
:100CF00008951092D0011092CF0188EE93E0A0E009
:100D0000B0E08093D1019093D201A093D301B0932E
:100D1000D4018EE991E09093CE018093CD0185ECD2
:100D200090E09093DA018093D90184EC90E0909365
:100D3000DC018093DB0180EC90E09093DE018093F6
:100D4000DD0181EC90E09093E0018093DF0182EC83
:100D500090E09093E2018093E10186EC90E0909323
:100D6000E4018093E3011092E6011092E7011092F2
:100D7000E8011092E901089508950E94E2030E949B
:100D8000BC060E948800CFEFD4E00E94C4002097E8
:100D9000E1F30E94FF04F9CFCF92DF92EF92FF922E
:100DA0000F931F93CF93DF936C017A01EB01E60E53
:100DB000F71E00E010E0CE15DF0561F06991D60165
:100DC000ED91FC910190F081E02DC6010995080F8D
:100DD000191FF1CFC801DF91CF911F910F91FF90A3
:100DE000EF90DF90CF9008956115710581F0DB01E0
:100DF0000D900020E9F7AD0141505109461B570BFA
:100E0000DC01ED91FC910280F381E02D099480E0FA
:100E100090E008950C94F406DC01ED91FC910190B2
:100E2000F081E02D09948F929F92AF92BF92CF9262
:100E3000DF92EF92FF920F931F93CF93DF93CDB783
:100E4000DEB7A1970FB6F894DEBF0FBECDBF7C0111
:100E5000C42EE52FCB01D22E19A221E02D1510F0C2
:100E60002AE0D22E8E010F5D1F4F8D2C912CA12CCC
:100E7000B12C6C2D7E2FA50194010E94D3078C2DDF
:100E8000D29E80191124015011098A3014F4805D1A
:100E900001C0895CF80180832115310541055105A8
:100EA00021F0C22EE32FCA01E4CFB801C7010E948E
:100EB000F406A1960FB6F894DEBF0FBECDBFDF914A
:100EC000CF911F910F91FF90EF90DF90CF90BF9047
:100ED000AF909F908F900895CF92DF92EF92FF9204
:100EE0000F931F93CF93DF93EC016A017B012115D0
:100EF000310579F4E881F9810190F081E02D642FCA
:100F0000DF91CF911F910F91FF90EF90DF90CF90E5
:100F100009942A303105E9F477FF1AC06DE20E9486
:100F20000C078C0144275527BA014C195D096E093D
:100F30007F092AE0CE010E941307800F911FDF91E5
:100F4000CF911F910F91FF90EF90DF90CF90089578
:100F50002AE0B701A601CE01DF91CF911F910F9139
:100F6000FF90EF90DF90CF900C9413079A01AB01A4
:100F7000662757FD6095762F0C946C07089597FBB4
:100F8000072E16F4009407D077FD09D00E94F507CC
:100F900007FC05D03EF4909581959F4F089570957C
:100FA00061957F4F0895A1E21A2EAA1BBB1BFD017C
:100FB0000DC0AA1FBB1FEE1FFF1FA217B307E40738
:100FC000F50720F0A21BB30BE40BF50B661F771F90
:100FD000881F991F1A9469F7609570958095909570
:100FE0009B01AC01BD01CF010895AA1BBB1B51E1C0
:100FF00007C0AA1FBB1FA617B70710F0A61BB70B89
:10100000881F991F5A95A9F780959095BC01CD012D
:101010000895EE0FFF1F0590F491E02D0994F894C8
:02102000FFCF00
:10102200013C3C44657369676E2062792000202090
:1010320020202054686172696E64753E3E00203C37
:101042003C4E6F7420416C636F686F6C3E3E004192
:101052006C636F686F6C205072653D002520202004
:101062002E00416C636F686F6C205072653D3020BA
:10107200202E00250020203C3C56616C75653D6C9D
:101082006F77202020202E0020203C3C56616C757A
:10109200653D6D6964646C65202020202E0020204F
:1010A2003C3C56616C75653D68696768202020206C
:1010B2002E00000000003C03CC060000000050059A
:0A10C200CC06D204EB04DD042E0579
:00000001FF
